{
  "_format": "hh-sol-artifact-1",
  "contractName": "AssetTracker",
  "sourceName": "contracts/AssetTracker.sol",
  "abi": [
    {
      "anonymous": false,
      "inputs": [
        {
          "indexed": false,
          "internalType": "string",
          "name": "name",
          "type": "string"
        },
        {
          "indexed": false,
          "internalType": "string",
          "name": "add",
          "type": "string"
        },
        {
          "indexed": false,
          "internalType": "string",
          "name": "email",
          "type": "string"
        },
        {
          "indexed": false,
          "internalType": "string",
          "name": "phone",
          "type": "string"
        }
      ],
      "name": "RejectDistributor",
      "type": "event"
    },
    {
      "inputs": [
        {
          "internalType": "uint256",
          "name": "i",
          "type": "uint256"
        }
      ],
      "name": "Arrived",
      "outputs": [],
      "stateMutability": "nonpayable",
      "type": "function"
    },
    {
      "inputs": [],
      "name": "assetCount",
      "outputs": [
        {
          "internalType": "uint256",
          "name": "",
          "type": "uint256"
        }
      ],
      "stateMutability": "view",
      "type": "function"
    },
    {
      "inputs": [
        {
          "internalType": "uint256",
          "name": "_amount",
          "type": "uint256"
        }
      ],
      "name": "balance",
      "outputs": [
        {
          "internalType": "bool",
          "name": "",
          "type": "bool"
        }
      ],
      "stateMutability": "pure",
      "type": "function"
    },
    {
      "inputs": [
        {
          "internalType": "string",
          "name": "name",
          "type": "string"
        },
        {
          "internalType": "string",
          "name": "description",
          "type": "string"
        },
        {
          "internalType": "uint256",
          "name": "distributorId",
          "type": "uint256"
        },
        {
          "internalType": "uint256",
          "name": "cost",
          "type": "uint256"
        },
        {
          "internalType": "uint256",
          "name": "quantity",
          "type": "uint256"
        },
        {
          "internalType": "string",
          "name": "manufacturer",
          "type": "string"
        },
        {
          "internalType": "string",
          "name": "customer",
          "type": "string"
        },
        {
          "internalType": "string",
          "name": "addressFrom",
          "type": "string"
        },
        {
          "internalType": "string",
          "name": "addressTo",
          "type": "string"
        }
      ],
      "name": "createAsset",
      "outputs": [],
      "stateMutability": "nonpayable",
      "type": "function"
    },
    {
      "inputs": [],
      "name": "distributorCount",
      "outputs": [
        {
          "internalType": "uint256",
          "name": "",
          "type": "uint256"
        }
      ],
      "stateMutability": "view",
      "type": "function"
    },
    {
      "inputs": [],
      "name": "getAllAssets",
      "outputs": [
        {
          "components": [
            {
              "internalType": "string",
              "name": "name",
              "type": "string"
            },
            {
              "internalType": "string",
              "name": "description",
              "type": "string"
            },
            {
              "internalType": "uint256",
              "name": "cost",
              "type": "uint256"
            },
            {
              "internalType": "uint256",
              "name": "quantity",
              "type": "uint256"
            },
            {
              "internalType": "string",
              "name": "manufacturer",
              "type": "string"
            },
            {
              "internalType": "string",
              "name": "customer",
              "type": "string"
            },
            {
              "internalType": "string",
              "name": "addressFrom",
              "type": "string"
            },
            {
              "internalType": "string",
              "name": "addressTo",
              "type": "string"
            },
            {
              "internalType": "bool",
              "name": "initialized",
              "type": "bool"
            },
            {
              "internalType": "bool",
              "name": "arrived",
              "type": "bool"
            },
            {
              "internalType": "uint256",
              "name": "distributorId",
              "type": "uint256"
            }
          ],
          "internalType": "struct AssetTracker.Asset[]",
          "name": "",
          "type": "tuple[]"
        }
      ],
      "stateMutability": "view",
      "type": "function"
    },
    {
      "inputs": [],
      "name": "getAlldistributors",
      "outputs": [
        {
          "components": [
            {
              "internalType": "uint256",
              "name": "id",
              "type": "uint256"
            },
            {
              "internalType": "string",
              "name": "name",
              "type": "string"
            },
            {
              "internalType": "string",
              "name": "add",
              "type": "string"
            },
            {
              "internalType": "string",
              "name": "email",
              "type": "string"
            },
            {
              "internalType": "string",
              "name": "phone",
              "type": "string"
            }
          ],
          "internalType": "struct AssetTracker.Person[]",
          "name": "",
          "type": "tuple[]"
        }
      ],
      "stateMutability": "view",
      "type": "function"
    },
    {
      "inputs": [
        {
          "internalType": "uint256",
          "name": "id",
          "type": "uint256"
        }
      ],
      "name": "getDistributorbyId",
      "outputs": [
        {
          "internalType": "string",
          "name": "",
          "type": "string"
        },
        {
          "internalType": "string",
          "name": "",
          "type": "string"
        },
        {
          "internalType": "string",
          "name": "",
          "type": "string"
        },
        {
          "internalType": "string",
          "name": "",
          "type": "string"
        }
      ],
      "stateMutability": "view",
      "type": "function"
    },
    {
      "inputs": [
        {
          "internalType": "uint256",
          "name": "i",
          "type": "uint256"
        }
      ],
      "name": "getItemByUUID",
      "outputs": [
        {
          "internalType": "uint256",
          "name": "cost",
          "type": "uint256"
        },
        {
          "internalType": "uint256",
          "name": "quantity",
          "type": "uint256"
        }
      ],
      "stateMutability": "view",
      "type": "function"
    },
    {
      "inputs": [
        {
          "internalType": "string",
          "name": "name",
          "type": "string"
        },
        {
          "internalType": "string",
          "name": "add",
          "type": "string"
        },
        {
          "internalType": "string",
          "name": "email",
          "type": "string"
        },
        {
          "internalType": "string",
          "name": "phone",
          "type": "string"
        }
      ],
      "name": "insertDistributor",
      "outputs": [
        {
          "internalType": "bool",
          "name": "",
          "type": "bool"
        }
      ],
      "stateMutability": "nonpayable",
      "type": "function"
    },
    {
      "inputs": [
        {
          "internalType": "address",
          "name": "owner",
          "type": "address"
        },
        {
          "internalType": "uint256",
          "name": "i",
          "type": "uint256"
        }
      ],
      "name": "isOwnerOf",
      "outputs": [
        {
          "internalType": "bool",
          "name": "",
          "type": "bool"
        }
      ],
      "stateMutability": "view",
      "type": "function"
    },
    {
      "inputs": [
        {
          "internalType": "address",
          "name": "to",
          "type": "address"
        },
        {
          "internalType": "uint256",
          "name": "i",
          "type": "uint256"
        }
      ],
      "name": "transferAsset",
      "outputs": [],
      "stateMutability": "nonpayable",
      "type": "function"
    }
  ],
  "bytecode": "60806040525f6001555f600255348015610017575f80fd5b506123ea806100255f395ff3fe608060405234801561000f575f80fd5b50600436106100b2575f3560e01c8063ba1d89951161006f578063ba1d89951461018a578063c5246353146101bb578063c5b8f772146101d9578063c9469a4b14610209578063eafe7a7414610225578063fdd0e4d714610243576100b2565b80631e78717d146100b65780632acada4d146100d25780633ac140e8146100f057806347bb89f01461010e5780635c921eb91461013e578063752493291461015a575b5f80fd5b6100d060048036038101906100cb919061150d565b610276565b005b6100da610447565b6040516100e791906118e6565b60405180910390f35b6100f86108b5565b6040516101059190611915565b60405180910390f35b6101286004803603810190610123919061192e565b6108bb565b6040516101359190611968565b60405180910390f35b610158600480360381019061015391906119db565b610908565b005b610174600480360381019061016f9190611a19565b610adb565b6040516101819190611968565b60405180910390f35b6101a4600480360381019061019f919061192e565b610c58565b6040516101b2929190611aed565b60405180910390f35b6101c3610cd2565b6040516101d09190611c57565b60405180910390f35b6101f360048036038101906101ee91906119db565b610fd5565b6040516102009190611968565b60405180910390f35b610223600480360381019061021e919061192e565b611047565b005b61022d611077565b60405161023a9190611915565b60405180910390f35b61025d6004803603810190610258919061192e565b61107d565b60405161026d9493929190611cbf565b60405180910390f35b6040518061016001604052808a81526020018981526020018781526020018681526020018581526020018481526020018381526020018281526020016001151581526020015f151581526020018881525060035f60025481526020019081526020015f205f820151815f0190816102ed9190611f18565b5060208201518160010190816103039190611f18565b506040820151816002015560608201518160030155608082015181600401908161032d9190611f18565b5060a08201518160050190816103439190611f18565b5060c08201518160060190816103599190611f18565b5060e082015181600701908161036f9190611f18565b50610100820151816008015f6101000a81548160ff0219169083151502179055506101208201518160080160016101000a81548160ff0219169083151502179055506101408201518160090155905050600160045f3373ffffffffffffffffffffffffffffffffffffffff1673ffffffffffffffffffffffffffffffffffffffff1681526020019081526020015f205f60025481526020019081526020015f205f6101000a81548160ff02191690831515021790555060025f81548092919061043790612014565b9190505550505050505050505050565b60605f60025467ffffffffffffffff811115610466576104656113b6565b5b60405190808252806020026020018201604052801561049f57816020015b61048c611306565b8152602001906001900390816104845790505b5090505f5b6002548110156108ad575f60035f8381526020019081526020015f20905080604051806101600160405290815f820180546104de90611d4b565b80601f016020809104026020016040519081016040528092919081815260200182805461050a90611d4b565b80156105555780601f1061052c57610100808354040283529160200191610555565b820191905f5260205f20905b81548152906001019060200180831161053857829003601f168201915b5050505050815260200160018201805461056e90611d4b565b80601f016020809104026020016040519081016040528092919081815260200182805461059a90611d4b565b80156105e55780601f106105bc576101008083540402835291602001916105e5565b820191905f5260205f20905b8154815290600101906020018083116105c857829003601f168201915b50505050508152602001600282015481526020016003820154815260200160048201805461061290611d4b565b80601f016020809104026020016040519081016040528092919081815260200182805461063e90611d4b565b80156106895780601f1061066057610100808354040283529160200191610689565b820191905f5260205f20905b81548152906001019060200180831161066c57829003601f168201915b505050505081526020016005820180546106a290611d4b565b80601f01602080910402602001604051908101604052809291908181526020018280546106ce90611d4b565b80156107195780601f106106f057610100808354040283529160200191610719565b820191905f5260205f20905b8154815290600101906020018083116106fc57829003601f168201915b5050505050815260200160068201805461073290611d4b565b80601f016020809104026020016040519081016040528092919081815260200182805461075e90611d4b565b80156107a95780601f10610780576101008083540402835291602001916107a9565b820191905f5260205f20905b81548152906001019060200180831161078c57829003601f168201915b505050505081526020016007820180546107c290611d4b565b80601f01602080910402602001604051908101604052809291908181526020018280546107ee90611d4b565b80156108395780601f1061081057610100808354040283529160200191610839565b820191905f5260205f20905b81548152906001019060200180831161081c57829003601f168201915b50505050508152602001600882015f9054906101000a900460ff161515151581526020016008820160019054906101000a900460ff161515151581526020016009820154815250508383815181106108945761089361205b565b5b60200260200101819052505080806001019150506104a4565b508091505090565b60015481565b5f601482106108ff576040517f08c379a00000000000000000000000000000000000000000000000000000000081526004016108f6906120f8565b60405180910390fd5b60019050919050565b6001151560035f60025481526020019081526020015f206008015f9054906101000a900460ff16151514610971576040517f08c379a000000000000000000000000000000000000000000000000000000000815260040161096890612160565b60405180910390fd5b6001151560045f3373ffffffffffffffffffffffffffffffffffffffff1673ffffffffffffffffffffffffffffffffffffffff1681526020019081526020015f205f8381526020019081526020015f205f9054906101000a900460ff16151514610a10576040517f08c379a0000000000000000000000000000000000000000000000000000000008152600401610a07906121c8565b60405180910390fd5b5f60045f3373ffffffffffffffffffffffffffffffffffffffff1673ffffffffffffffffffffffffffffffffffffffff1681526020019081526020015f205f8381526020019081526020015f205f6101000a81548160ff021916908315150217905550600160045f8473ffffffffffffffffffffffffffffffffffffffff1673ffffffffffffffffffffffffffffffffffffffff1681526020019081526020015f205f8381526020019081526020015f205f6101000a81548160ff0219169083151502179055505050565b5f805f90505b600154811015610b9657604051602001610afa9061223a565b604051602081830303815290604052805190602001205f808381526020019081526020015f20600301604051602001610b3391906122ce565b6040516020818303038152906040528051906020012003610b89576040517f08c379a0000000000000000000000000000000000000000000000000000000008152600401610b809061232e565b60405180910390fd5b8080600101915050610ae1565b506040518060a001604052806001548152602001868152602001858152602001848152602001838152505f8060015481526020019081526020015f205f820151815f01556020820151816001019081610bef9190611f18565b506040820151816002019081610c059190611f18565b506060820151816003019081610c1b9190611f18565b506080820151816004019081610c319190611f18565b5090505060015f815480929190610c4790612014565b919050555060019050949350505050565b5f80600254831115610c9f576040517f08c379a0000000000000000000000000000000000000000000000000000000008152600401610c9690612396565b60405180910390fd5b60035f8481526020019081526020015f206002015460035f8581526020019081526020015f206003015491509150915091565b60605f60015467ffffffffffffffff811115610cf157610cf06113b6565b5b604051908082528060200260200182016040528015610d2a57816020015b610d1761135f565b815260200190600190039081610d0f5790505b5090505f5b600154811015610fcd575f805f8381526020019081526020015f209050806040518060a00160405290815f8201548152602001600182018054610d7190611d4b565b80601f0160208091040260200160405190810160405280929190818152602001828054610d9d90611d4b565b8015610de85780601f10610dbf57610100808354040283529160200191610de8565b820191905f5260205f20905b815481529060010190602001808311610dcb57829003601f168201915b50505050508152602001600282018054610e0190611d4b565b80601f0160208091040260200160405190810160405280929190818152602001828054610e2d90611d4b565b8015610e785780601f10610e4f57610100808354040283529160200191610e78565b820191905f5260205f20905b815481529060010190602001808311610e5b57829003601f168201915b50505050508152602001600382018054610e9190611d4b565b80601f0160208091040260200160405190810160405280929190818152602001828054610ebd90611d4b565b8015610f085780601f10610edf57610100808354040283529160200191610f08565b820191905f5260205f20905b815481529060010190602001808311610eeb57829003601f168201915b50505050508152602001600482018054610f2190611d4b565b80601f0160208091040260200160405190810160405280929190818152602001828054610f4d90611d4b565b8015610f985780601f10610f6f57610100808354040283529160200191610f98565b820191905f5260205f20905b815481529060010190602001808311610f7b57829003601f168201915b505050505081525050838381518110610fb457610fb361205b565b5b6020026020010181905250508080600101915050610d2f565b508091505090565b5f60045f8473ffffffffffffffffffffffffffffffffffffffff1673ffffffffffffffffffffffffffffffffffffffff1681526020019081526020015f205f8381526020019081526020015f205f9054906101000a900460ff161561103d5760019050611041565b5f90505b92915050565b600160035f8381526020019081526020015f2060080160016101000a81548160ff02191690831515021790555050565b60025481565b6060806060805f808681526020019081526020015f206001015f808781526020019081526020015f206002015f808881526020019081526020015f206003015f808981526020019081526020015f206004018380546110db90611d4b565b80601f016020809104026020016040519081016040528092919081815260200182805461110790611d4b565b80156111525780601f1061112957610100808354040283529160200191611152565b820191905f5260205f20905b81548152906001019060200180831161113557829003601f168201915b5050505050935082805461116590611d4b565b80601f016020809104026020016040519081016040528092919081815260200182805461119190611d4b565b80156111dc5780601f106111b3576101008083540402835291602001916111dc565b820191905f5260205f20905b8154815290600101906020018083116111bf57829003601f168201915b505050505092508180546111ef90611d4b565b80601f016020809104026020016040519081016040528092919081815260200182805461121b90611d4b565b80156112665780601f1061123d57610100808354040283529160200191611266565b820191905f5260205f20905b81548152906001019060200180831161124957829003601f168201915b5050505050915080805461127990611d4b565b80601f01602080910402602001604051908101604052809291908181526020018280546112a590611d4b565b80156112f05780601f106112c7576101008083540402835291602001916112f0565b820191905f5260205f20905b8154815290600101906020018083116112d357829003601f168201915b5050505050905093509350935093509193509193565b60405180610160016040528060608152602001606081526020015f81526020015f8152602001606081526020016060815260200160608152602001606081526020015f151581526020015f151581526020015f81525090565b6040518060a001604052805f8152602001606081526020016060815260200160608152602001606081525090565b5f604051905090565b5f80fd5b5f80fd5b5f80fd5b5f80fd5b5f601f19601f8301169050919050565b7f4e487b71000000000000000000000000000000000000000000000000000000005f52604160045260245ffd5b6113ec826113a6565b810181811067ffffffffffffffff8211171561140b5761140a6113b6565b5b80604052505050565b5f61141d61138d565b905061142982826113e3565b919050565b5f67ffffffffffffffff821115611448576114476113b6565b5b611451826113a6565b9050602081019050919050565b828183375f83830152505050565b5f61147e6114798461142e565b611414565b90508281526020810184848401111561149a576114996113a2565b5b6114a584828561145e565b509392505050565b5f82601f8301126114c1576114c061139e565b5b81356114d184826020860161146c565b91505092915050565b5f819050919050565b6114ec816114da565b81146114f6575f80fd5b50565b5f81359050611507816114e3565b92915050565b5f805f805f805f805f6101208a8c03121561152b5761152a611396565b5b5f8a013567ffffffffffffffff8111156115485761154761139a565b5b6115548c828d016114ad565b99505060208a013567ffffffffffffffff8111156115755761157461139a565b5b6115818c828d016114ad565b98505060406115928c828d016114f9565b97505060606115a38c828d016114f9565b96505060806115b48c828d016114f9565b95505060a08a013567ffffffffffffffff8111156115d5576115d461139a565b5b6115e18c828d016114ad565b94505060c08a013567ffffffffffffffff8111156116025761160161139a565b5b61160e8c828d016114ad565b93505060e08a013567ffffffffffffffff81111561162f5761162e61139a565b5b61163b8c828d016114ad565b9250506101008a013567ffffffffffffffff81111561165d5761165c61139a565b5b6116698c828d016114ad565b9150509295985092959850929598565b5f81519050919050565b5f82825260208201905092915050565b5f819050602082019050919050565b5f81519050919050565b5f82825260208201905092915050565b5f5b838110156116d95780820151818401526020810190506116be565b5f8484015250505050565b5f6116ee826116a2565b6116f881856116ac565b93506117088185602086016116bc565b611711816113a6565b840191505092915050565b611725816114da565b82525050565b5f8115159050919050565b61173f8161172b565b82525050565b5f61016083015f8301518482035f86015261176082826116e4565b9150506020830151848203602086015261177a82826116e4565b915050604083015161178f604086018261171c565b5060608301516117a2606086018261171c565b50608083015184820360808601526117ba82826116e4565b91505060a083015184820360a08601526117d482826116e4565b91505060c083015184820360c08601526117ee82826116e4565b91505060e083015184820360e086015261180882826116e4565b91505061010083015161181f610100860182611736565b50610120830151611834610120860182611736565b5061014083015161184961014086018261171c565b508091505092915050565b5f61185f8383611745565b905092915050565b5f602082019050919050565b5f61187d82611679565b6118878185611683565b93508360208202850161189985611693565b805f5b858110156118d457848403895281516118b58582611854565b94506118c083611867565b925060208a0199505060018101905061189c565b50829750879550505050505092915050565b5f6020820190508181035f8301526118fe8184611873565b905092915050565b61190f816114da565b82525050565b5f6020820190506119285f830184611906565b92915050565b5f6020828403121561194357611942611396565b5b5f611950848285016114f9565b91505092915050565b6119628161172b565b82525050565b5f60208201905061197b5f830184611959565b92915050565b5f73ffffffffffffffffffffffffffffffffffffffff82169050919050565b5f6119aa82611981565b9050919050565b6119ba816119a0565b81146119c4575f80fd5b50565b5f813590506119d5816119b1565b92915050565b5f80604083850312156119f1576119f0611396565b5b5f6119fe858286016119c7565b9250506020611a0f858286016114f9565b9150509250929050565b5f805f8060808587031215611a3157611a30611396565b5b5f85013567ffffffffffffffff811115611a4e57611a4d61139a565b5b611a5a878288016114ad565b945050602085013567ffffffffffffffff811115611a7b57611a7a61139a565b5b611a87878288016114ad565b935050604085013567ffffffffffffffff811115611aa857611aa761139a565b5b611ab4878288016114ad565b925050606085013567ffffffffffffffff811115611ad557611ad461139a565b5b611ae1878288016114ad565b91505092959194509250565b5f604082019050611b005f830185611906565b611b0d6020830184611906565b9392505050565b5f81519050919050565b5f82825260208201905092915050565b5f819050602082019050919050565b5f60a083015f830151611b525f86018261171c565b5060208301518482036020860152611b6a82826116e4565b91505060408301518482036040860152611b8482826116e4565b91505060608301518482036060860152611b9e82826116e4565b91505060808301518482036080860152611bb882826116e4565b9150508091505092915050565b5f611bd08383611b3d565b905092915050565b5f602082019050919050565b5f611bee82611b14565b611bf88185611b1e565b935083602082028501611c0a85611b2e565b805f5b85811015611c455784840389528151611c268582611bc5565b9450611c3183611bd8565b925060208a01995050600181019050611c0d565b50829750879550505050505092915050565b5f6020820190508181035f830152611c6f8184611be4565b905092915050565b5f82825260208201905092915050565b5f611c91826116a2565b611c9b8185611c77565b9350611cab8185602086016116bc565b611cb4816113a6565b840191505092915050565b5f6080820190508181035f830152611cd78187611c87565b90508181036020830152611ceb8186611c87565b90508181036040830152611cff8185611c87565b90508181036060830152611d138184611c87565b905095945050505050565b7f4e487b71000000000000000000000000000000000000000000000000000000005f52602260045260245ffd5b5f6002820490506001821680611d6257607f821691505b602082108103611d7557611d74611d1e565b5b50919050565b5f819050815f5260205f209050919050565b5f6020601f8301049050919050565b5f82821b905092915050565b5f60088302611dd77fffffffffffffffffffffffffffffffffffffffffffffffffffffffffffffffff82611d9c565b611de18683611d9c565b95508019841693508086168417925050509392505050565b5f819050919050565b5f611e1c611e17611e12846114da565b611df9565b6114da565b9050919050565b5f819050919050565b611e3583611e02565b611e49611e4182611e23565b848454611da8565b825550505050565b5f90565b611e5d611e51565b611e68818484611e2c565b505050565b5b81811015611e8b57611e805f82611e55565b600181019050611e6e565b5050565b601f821115611ed057611ea181611d7b565b611eaa84611d8d565b81016020851015611eb9578190505b611ecd611ec585611d8d565b830182611e6d565b50505b505050565b5f82821c905092915050565b5f611ef05f1984600802611ed5565b1980831691505092915050565b5f611f088383611ee1565b9150826002028217905092915050565b611f21826116a2565b67ffffffffffffffff811115611f3a57611f396113b6565b5b611f448254611d4b565b611f4f828285611e8f565b5f60209050601f831160018114611f80575f8415611f6e578287015190505b611f788582611efd565b865550611fdf565b601f198416611f8e86611d7b565b5f5b82811015611fb557848901518255600182019150602085019450602081019050611f90565b86831015611fd25784890151611fce601f891682611ee1565b8355505b6001600288020188555050505b505050505050565b7f4e487b71000000000000000000000000000000000000000000000000000000005f52601160045260245ffd5b5f61201e826114da565b91507fffffffffffffffffffffffffffffffffffffffffffffffffffffffffffffffff82036120505761204f611fe7565b5b600182019050919050565b7f4e487b71000000000000000000000000000000000000000000000000000000005f52603260045260245ffd5b7f42616c616e6365206e65656420746f2062652067726561746572207468616e205f8201527f3230000000000000000000000000000000000000000000000000000000000000602082015250565b5f6120e2602283611c77565b91506120ed82612088565b604082019050919050565b5f6020820190508181035f83015261210f816120d6565b9050919050565b7f4e6f2061737365742077697468207468697320555549442065786973747300005f82015250565b5f61214a601e83611c77565b915061215582612116565b602082019050919050565b5f6020820190508181035f8301526121778161213e565b9050919050565b7f53656e64657220646f6573206e6f74206f776e20746869732061737365742e005f82015250565b5f6121b2601f83611c77565b91506121bd8261217e565b602082019050919050565b5f6020820190508181035f8301526121df816121a6565b9050919050565b5f81905092915050565b7f31323340676d61696c2e636f6d000000000000000000000000000000000000005f82015250565b5f612224600d836121e6565b915061222f826121f0565b600d82019050919050565b5f61224482612218565b9150819050919050565b5f815461225a81611d4b565b61226481866121e6565b9450600182165f811461227e5760018114612293576122c5565b60ff19831686528115158202860193506122c5565b61229c85611d7b565b5f5b838110156122bd5781548189015260018201915060208101905061229e565b838801955050505b50505092915050565b5f6122d9828461224e565b915081905092915050565b7f4469737472696275746f7220616c7265616479206578697374730000000000005f82015250565b5f612318601a83611c77565b9150612323826122e4565b602082019050919050565b5f6020820190508181035f8301526123458161230c565b9050919050565b7f417373657420646f6573206e6f742065786973747300000000000000000000005f82015250565b5f612380601583611c77565b915061238b8261234c565b602082019050919050565b5f6020820190508181035f8301526123ad81612374565b905091905056fea2646970667358221220648a68e652c73fb848031c56ea04b4518a840634e059bc46a9a406777c6b8b4364736f6c63430008160033",
  "linkReferences": {},
  "deployedLinkReferences": {}
}